:1000000080310D28E83403347E14803120009110B3
:1000100093311D2380317E10090080310F2822008A
:10002000803102208031CF00803103208031D00028
:100030002830840023308500C830FE000030FF00E7
:10004000923172228031F601F701F8012100E901B5
:100050002200C701C801C901CA01CB01CC01CD01F1
:10006000CE017E1020009331FE2B21005E0822007D
:10007000A70021005D082200A60021005C082200E4
:10008000A50021005B082200A4002708BD00260867
:10009000BC002508BB002408BA003A082100DF0094
:1000A00022003B082100E00022003C082100E10082
:1000B00022003D082100E2001F30E236E10CE00C96
:1000C000DF0C890B5D2860082200B10021005F0869
:1000D0002200B000FF30BA05FF30BB05FF30BC0581
:1000E0007F30BD05DB303A020F303B3B49303C3BB3
:1000F0003F303D3B03187D287E28AC28803022000D
:100100003C0239303D3B03188628872888288A2CF2
:1001100021005E082000E70021005D082000E600C5
:1001200021005C082000E50021005B082000E400BD
:100130008931F9218031200067082100DE0020008C
:1001400066082100DD00200065082100DC00200099
:1001500064082100DB008A2CD23022003A0253309E
:100160003B3B7B303C3B40303D3B0318B828B92833
:100170000F2AE43022003A02CB303B3B16303C3BA6
:1001800040303D3B0318C528C62876292200300898
:1001900031040319CC28CD28272921005E0820002E
:1001A000CF0021005D082000CE0021005C08200067
:1001B000CD0021005B082000CC003F30CB00C930CF
:1001C000CA000F30C900DB30C8008B31BD2380313D
:1001D00020004B082200B50020004A082200B4008D
:1001E000200049082200B300200048082200B20085
:1001F00035082000DF00220034082000DE00220045
:1002000033082000DD00220032082000DC00963197
:100210006826803120005F08E3005E08E2005D0888
:10022000E1005C08E0009231662280312000630822
:100230002100DE00200062082100DD0020006108AE
:100240002100DC00200060082100DB008A2CBF3088
:100250002000CB00C930CA000F30C900DB30C80015
:1002600021005E082000CF0021005D082000CE00A4
:1002700021005C082000CD0021005B082000CC009C
:100280008B31BD23803120004B082200B5002000B7
:100290004A082200B400200049082200B3002000D0
:1002A00048082200B20035082000DF002200340890
:1002B0002000DE00220033082000DD00220032088A
:1002C0002000DC0096316826803120005F08210084
:1002D000DE0020005E082100DD0020005D08210016
:1002E000DC0020005C082100DB008A2C22003008A2
:1002F0003104031D7C297D29B52921005E082000D9
:10030000CF0021005D082000CE0021005C08200005
:10031000CD0021005B082000CC00C030CB0049306C
:10032000CA000F30C900DB30C8008B31BD238031DB
:1003300020004B08E3004A08E2004908E1004808B1
:10034000E000923166228031200063082200AB0079
:10035000200062082200AA00200061082200A900F3
:10036000200060082200A800EC2921005E0820007F
:10037000CF0021005D082000CE0021005C08200095
:10038000CD0021005B082000CC004030CB0049307C
:10039000CA000F30C900DB30C8008B31BD2380316B
:1003A00020004B08E3004A08E2004908E100480841
:1003B000E000923166228031200063082200AB0009
:1003C000200062082200AA00200061082200A90083
:1003D000200060082200A8002B082000E70022006F
:1003E0002A082000E600220029082000E50022005B
:1003F00028082000E4008931F921803120006708B5
:100400002100DE00200066082100DD0020006508D4
:100410002100DC00200064082100DB008A2CD6309B
:1004200022003A0231303B3BE2303C3B40303D3B26
:1004300003181B2A1C2A5C2BE03022003A02ED3004
:100440003B3BAF303C3B40303D3B0318282A292A38
:10045000D92A22003008310403192F2A302A7F2A92
:1004600040302000CB009630CA00CB30C900E430C9
:10047000C80021005E082000CF0021005D08200098
:10048000CE0021005C082000CD0021005B08200088
:10049000CC008B31BD23803120004B082200B500F9
:1004A00020004A082200B400200049082200B300BE
:1004B000200048082200B20035082000DF0022009A
:1004C00034082000DE00220033082000DD00220076
:1004D00032082000DC0096316826803120005F0859
:1004E0002100DE0020005E082100DD0020005D0804
:1004F0002100DC0020005C082100DB008A2C2100A8
:100500005E082000CF0021005D082000CE00210001
:100510005C082000CD0021005B082000CC00C0302A
:10052000CB009630CA00CB30C900E430C8008B3114
:10053000BD23803120004B082200B50020004A086E
:100540002200B400200049082200B300200048081F
:100550002200B20035082000DF002200340820000D
:10056000DE00220033082000DD00220032082000D7
:10057000DC0096316826803120005F08E3005E08C9
:10058000E2005D08E1005C08E00092316622803103
:10059000200063082100DE00200062082100DD0049
:1005A000200061082100DC00200060082100DB0041
:1005B0008A2C220030083104031DDF2AE02A0D2B8B
:1005C000C0302000CB00C930CA000F30C900DB307A
:1005D000C80021005E082000CF0021005D08200037
:1005E000CE0021005C082000CD0021005B08200027
:1005F000CC008B31BD23803120004B082200AF009E
:1006000020004A082200AE00200049082200AD0068
:10061000200048082200AC00392B40302000CB00DD
:10062000C930CA000F30C900DB30C80021005E08A5
:100630002000CF0021005D082000CE0021005C08D2
:100640002000CD0021005B082000CC008B31BD23B1
:10065000803120004B082200AF0020004A08220011
:10066000AE00200049082200AD002000480822000A
:10067000AC002F082000E70022002E082000E60032
:1006800022002D082000E50022002C082000E400B4
:100690008931F9218031200067082100DE00200027
:1006A00066082100DD00200065082100DC00200034
:1006B00064082100DB008A2C803022003C027F305D
:1006C0003D3B031C642B652B992B21005E08200009
:1006D000DF0021005D082000DE0021005C08200012
:1006E000DD0021005B082000DC0021005E08200006
:1006F000E30021005D082000E20021005C082000EA
:10070000E10021005B082000E0009231D922803115
:1007100020005F082100DE0020005E082100DD00CF
:1007200020005D082100DC0020005C082100DB00C7
:100730008A2C21005E08BB005D08BA005C08B90085
:100740005B08B8003630BC0084318B248031210036
:1007500038082200A000210039082200A100890DDC
:10076000893B8909A200A3005D2C220039082000E2
:10077000E700220038082000E600220037082000A9
:10078000E500220036082000E4008931F92180319B
:10079000200067082100DE00200066082100DD003F
:1007A000200065082100DC00200064082100DB0037
:1007B0008A2C220039082000DF002200380820009F
:1007C000DE00220037082000DD002200360820006D
:1007D000DC0096316826803120005F082100DE00B1
:1007E00020005E082100DD0020005D082100DC0003
:1007F00020005C082100DB008A2C22003908200040
:10080000E300220038082000E20022003708200020
:10081000E100220036082000E0009231662280319B
:1008200020006308E7006208E6006108E500600850
:10083000E4008931F9218031200067082100DE00C1
:10084000200066082100DD00200065082100DC0092
:10085000200064082100DB008A2C220039082000D7
:10086000DF00220038082000DE00220037082000C8
:10087000DD00220036082000DC0096316826803139
:1008800020005F08E3005E08E2005D08E1005C080C
:10089000E000923166228031200063082100DE00F2
:1008A000200062082100DD00200061082100DC003A
:1008B000200060082100DB008A2C03302005210085
:1008C000DF000030220021052100E000003022007E
:1008D00022052100E1000030220023052100E20072
:1008E0006208003A0319852C2D2C6008003A031980
:1008F0007A2C2D2C5F08003A0319B52B013A031905
:10090000D92B033A0319FD2B2D2C6108003A03194A
:10091000752C2D2C080022004E082100CA00220050
:100920004D082100C90022004C082100C800220007
:100930004B082100C7003B08CA003A08C900390823
:10094000C8003808C70047082000EC00210048080C
:100950002000ED00210049082000EE0021004A0897
:100960002000EF001F30EF36EE0CED0CEC0C890B85
:10097000B32C6D082100C60020006C082100C500C2
:10098000FF304705C100FF304805C200FF30490570
:10099000C3007F304A05C400803043027F30443BAF
:1009A000031CD32CD42C092D21003B082000DF0090
:1009B00021003A082000DE00210039082000DD0077
:1009C000210038082000DC0021003B082000E30063
:1009D00021003A082000E200210039082000E1004F
:1009E000210038082000E0009231D9228431210012
:1009F0003C0886000130870020005C08C03F5D088D
:100A0000C13F5E08C23F5F08C33F2100B801B90182
:100A1000C52FDB30210041020F30423BC930433B40
:100A20004D30443B0318152D162D712E21003B0827
:100A30002000A30021003A082000A200210039086C
:100A40002000A100210038082000A0008731C6271F
:100A50008431200023082100D60020002208210034
:100A6000D500200021082100D4002000200821000A
:100A7000D30056082000B500210055082000B4001E
:100A8000210054082000B300210053082000B200C8
:100A90003F30B1002230B000F930AF008330AE00FB
:100AA0008D31C525843120003108CF003008CE00BB
:100AB0002F08CD002E08CC003F30CB000030CA00FC
:100AC0000030C9000030C8008B31BD2384312000C4
:100AD0004B08E5004A08E4004908E3004808E20042
:100AE00093318D238431200065082100DA00200035
:100AF00064082100D900200063082100D8002000EC
:100B000062082100D7005A082000A30021005908DC
:100B10002000A200210058082000A1002100570851
:100B20002000A000013095310325843120002308E6
:100B30002100D200200022082100D100200021083D
:100B40002100D000200020082100CF003F302000ED
:100B5000B100C930B0000F30AF00DA30AE00210074
:100B600052082000B500210051082000B4002100E7
:100B700050082000B30021004F082000B2008D3142
:100B8000C525843120003108DF003008DE002F0841
:100B9000DD002E08DC00210056082000E3002100C3
:100BA00055082000E200210054082000E100210047
:100BB00053082000E0009231D922843120005F08E0
:100BC0002100CE0020005E082100CD0020005D083D
:100BD0002100CC0020005C082100CB003230200036
:100BE000B1008830B0008530AF00A330AE002100E6
:100BF00052082000B500210051082000B400210057
:100C000050082000B30021004F082000B2008D31B1
:100C1000C525843120003108DF003008DE002F08B0
:100C2000DD002E08DC0021004E082000E30021003A
:100C30004D082000E20021004C082000E1002100C6
:100C40004B082000E0009231D922843121003C0879
:100C500086000130870020005C08C03F5D08C13F6E
:100C60005E08C23F5F08C33F2100450846040319E0
:100C70003A2E3B2E6C2E3C08860001308700403F08
:100C80002000E000413FE100423FE200433FE3003B
:100C900092316622843121003C08860001308700B1
:100CA00020006008C03F6108C13F6208C23F63087E
:100CB000C33F210057092000EC0021005809200003
:100CC000ED00EC0A0319ED0A6C082100B8002000C1
:100CD0006D082100B900C52F5808B9005708B800A1
:100CE000C52F21003B082000A30021003A08200066
:100CF000A200210039082000A100210038082000AE
:100D0000A0008731C6278431200023082100D600A7
:100D1000200022082100D500200021082100D40055
:100D2000200020082100D30056082000B500210033
:100D300055082000B400210054082000B300210011
:100D400053082000B2003F30B1002230B000F9302B
:100D5000AF008330AE008D31C525843120003108CD
:100D6000CF003008CE002F08CD002E08CC003F3039
:100D7000CB000030CA000030C9000030C8008B3101
:100D8000BD23843120004B08E5004A08E4004908EF
:100D9000E3004808E20093318D2384312000650888
:100DA0002100DA00200064082100D9002000630837
:100DB0002100D800200062082100D7005A08200036
:100DC000A300210059082000A2002100580820009B
:100DD000A100210057082000A00001309531032513
:100DE0008431200023082100D200200022082100A5
:100DF000D100200021082100D0002000200821007F
:100E0000CF003F302000B100C930B0000F30AF003C
:100E1000DA30AE00210052082000B5002100510850
:100E20002000B400210050082000B30021004F082A
:100E30002000B2008D31C525843120003108DF004B
:100E40003008DE002F08DD002E08DC0021005608E7
:100E50002000E300210055082000E2002100540892
:100E60002000E100210053082000E0009231D92247
:100E7000843120005F082100CE0020005E082100A0
:100E8000CD0020005D082100CC0020005C0821007E
:100E9000CB0032302000B1008830B0008530AF0088
:100EA000A330AE00210052082000B50021005108F7
:100EB0002000B400210050082000B30021004F089A
:100EC0002000B2008D31C525843120003108DF00BB
:100ED0003008DE002F08DD002E08DC0021004E085F
:100EE0002000E30021004D082000E20021004C0812
:100EF0002000E10021004B082000E0009231D922BF
:100F0000843120005F082100C00020005E0821001D
:100F1000BF0020005D082100BE0020005C08210009
:100F2000BD00450846040319962F972FB82F400897
:100F30002000E30021003F082000E20021003E08DD
:100F40002000E10021003D082000E00092316622EF
:100F5000843121003C0886000130870020006008B1
:100F6000C03F6108C13F6208C23F6308C33F592EBA
:100F70003C088600013087003D08C03F3E08C13F65
:100F80003F08C23F4008C33F6C2E080022004A08B9
:100F90002000A700220049082000A60022004808DF
:100FA0002000A500220047082000A4002308A70075
:100FB0002208A6002108A5002008A400FF30A405EF
:100FC000FF30A505FF30A6057F30A7052708A30041
:100FD0002608A2002508A1002408A000080020007F
:100FE000A400013092315022873120002408923130
:0E0FF000BB2287316A30890BFB2F00320800CC
:10100000013092315B22883103302000A000623031
:10101000890B0828A00B08280000003092315B22C1
:10102000883108002000A501A60120082104031929
:101030001A281B284A28A401A40A27280130A03511
:10104000A10D890B1F280130F5007508A407A11F09
:101050002A282B281E280130A535A60D890B2C28FF
:1010600021082302031D362820082202031C3928E8
:101070003A283F282008A2022108A33B251401306A
:10108000A136A00C890B40280130A402031D492879
:101090004A282B282608A1002508A00008002000C7
:1010A0004F088039D9004F35E000CE1F5828592805
:1010B0005A286014600803195E285F286F28600AA8
:1010C000031D632864286C280030CF000030CE0058
:1010D0000030CD000030CC00CE17CF017728003093
:1010E000CF000030CE000030CD000030CC004B08E7
:1010F0008039D0005008D9064B35E100CA1F81283D
:101100008228832861146108031987288828982871
:10111000610A031D8C288D2895280030CB000030F3
:10112000CA000030C9000030C800CA17CB01A0288F
:101130000030CB000030CA000030C9000030C800C9
:101140004B084A0449044804031DA728A828C128BD
:101150000030CF000030CE000030CD000030CC0099
:101160008030CE047F30CF045908D0005008CF041F
:101170004F08CB004E08CA004D08C9004C08C800F3
:10118000F8296008031DC528C628CF280030CB00E9
:101190000030CA000030C9000030C800F8296008DB
:1011A000D000D1015108D30061085002D200031CC5
:1011B000D30352087F3EDA000030533DDB004F0876
:1011C000D8004E08D7004D08D6004C08D500003096
:1011D000CF000030CE000030CD000030CC00003019
:1011E000DF000030DE000030DD000030DC00E10117
:1011F000372961080319FD28FE2818290130D53543
:10120000D60DD70DD80D890BFF280130CC35CD0D6B
:10121000CE0DCF0D890B0629DF1F0F2910291129AB
:101220004C140130DC35DD0DDE0DDF0D890B12298C
:101230004B085802031D26294A085702031D262978
:1012400049085602031D262948085502031C29296E
:101250002A2933295F174808D5024908D63B4A088E
:10126000D73B4B08D83B0130D0005008E1071A307B
:101270006102031C3C293D29F928580857045604EB
:1012800055040319442945295E295C145E2901305F
:10129000CC35CD0DCE0DCF0D890B4829DF1F51293F
:1012A000522953294C140130DC35DD0DDE0DDF0DE4
:1012B000890B5429FF30DA07FF30DB3DCE1F61294F
:1012C00062294729E101DF1F662967298329FF3049
:1012D0005C05D000FF305D05D100FF305E05D20017
:1012E0007F305F05D30053085204510450040319A2
:1012F0007A297B297E29E101E10A83294C1C812975
:10130000822983297B296108031987298829B02923
:101310000130CC070030CD3D0030CE3D0030CF3D18
:101320004F1C93299429B0294C08D0004D08D100B6
:101330004E08D2004F08D3000130D400D337D20C6E
:10134000D10CD00CD40B9E295308CF005208CE00EC
:101350005108CD005008CC000130DA070030DB3DE9
:101360005B08803AD00080305002031DB929FF305D
:101370005A02031CBC29BD29CA29FF302000DA000B
:101380000030DB000030CF000030CE000030CD0058
:101390000030CC0020005B08803AD0008030500242
:1013A000031DD42901305A020318D729D829E4296A
:1013B0002000DA01DB010030CF000030CE00003029
:1013C000CD000030CC00D90120005A08E000601C9C
:1013D000EA29EB29ED29CE17F1297F30D0005008FA
:1013E000CE056036CF005908D0005008CF04B82889
:1013F000080020006708B1006608B0006508AF006B
:101400006408AE006708B5006608B4006508B3005C
:101410006408B2008D31C5258931200031082100D2
:10142000D300200030082100D20020002F08210026
:10143000D10020002E082100D00053082000B10068
:10144000210052082000B000210051082000AF0008
:10145000210050082000AE00210053082000B500F4
:10146000210052082000B400210051082000B300E0
:10147000210050082000B2008D31C525893120009F
:1014800031082100BF00200030082100BE002000EC
:101490002F082100BD0020002E082100BC00B9301B
:1014A0002000CB005030CA000730C900CF30C80040
:1014B0003630B1003630B0006C30AF003C30AE009A
:1014C000210053082000B500210052082000B4007C
:1014D000210051082000B300210050082000B20074
:1014E0008D31C525893120003108CF003008CE006C
:1014F0002F08CD002E08CC008B31BD238931200070
:101500004B082100BB0020004A082100BA0020003F
:1015100049082100B900200048082100B800200037
:101520006708B1006608B0006508AF006408AE0047
:10153000210053082000B500210052082000B4000B
:10154000210051082000B300210050082000B20003
:101550008D31C5258931200031082100CF002000C0
:1015600030082100CE0020002F082100CD002000EF
:101570002E082100CC003F082000B10021003E08C9
:101580002000B00021003D082000AF0021003C08F1
:101590002000AE0021004F082000B50021004E08B9
:1015A0002000B40021004D082000B30021004C08A9
:1015B0002000B2008D31C52589312000310821007D
:1015C000C300200030082100C20020002F082100A5
:1015D000C10020002E082100C000BE302000CB003A
:1015E0002A30CA00AA30C900AB30C8003C30B10074
:1015F0000830B0008830AF008430AE0021005308BE
:101600002000B500210052082000B400210051083C
:101610002000B300210050082000B2008D31C52504
:10162000893120003108CF003008CE002F08CD00CE
:101630002E08CC008B31BD23893120004B082100BE
:10164000C70020004A082100C600200049082100E8
:10165000C500200048082100C40020006708CB0016
:101660006608CA006508C9006408C80021004F0860
:101670002000B10021004E082000B00021004D08DC
:101680002000AF0021004C082000AE0021004708D8
:101690002000B500210046082000B40021004508C4
:1016A0002000B300210044082000B2008D31C52580
:1016B000893120003108CF003008CE002F08CD003E
:1016C0002E08CC008B31BD23893120004B0821002E
:1016D000CB0020004A082100CA0020004908210050
:1016E000C900200048082100C8003B082000B100C4
:1016F00021003A082000B000210039082000AF0086
:10170000210038082000AE00210043082000B50069
:10171000210042082000B400210041082000B3004D
:10172000210040082000B2008D31C52589312000FC
:101730003108CB003008CA002F08C9002E08C800A5
:1017400021004B082000CF0021004A082000CE00D5
:10175000210049082000CD00210048082000CC00CD
:101760008B31BD23893120004B08E7004A08E60091
:101770004908E5004808E400080020004B088039CB
:10178000D8004B35DA00CA1FC62BC72BC82B5A14FA
:101790005A080319CC2BCD2BDD2B5A0A031DD12B54
:1017A000D22BDA2B0030CB000030CA000030C90049
:1017B0000030C800CA17CB01E52B0030CB00003049
:1017C000CA000030C9000030C8004F088039D90075
:1017D000590858060319ED2BEE2BEF2B58174F35F0
:1017E000D900CE1FF42BF52BF62B591459080319E9
:1017F000FA2BFB2B0B2C590A031DFF2B002C082C5A
:101800000030CF000030CE000030CD000030CC00E2
:10181000CE17CF01132C0030CF000030CE000030A7
:10182000CD000030CC005A0859020318182C192C8E
:101830003F2C581F1C2C1D2C212C8030D000500810
:10184000D8065A08DB005908DA005B08D9004808B6
:10185000DB004C08C8005B08CC004908DB004D08E1
:10186000C9005B08CD004A08DB004E08CA005B08CF
:10187000CE004B08DB004F08CB005B08CF00DB013C
:101880005908D000D1015108D3005A085002D200A3
:10189000031CD3035308803AD40080305402031D44
:1018A000532C1A305202031C562C572C892C200022
:1018B0004B084A0449044804031D5F2C612C013085
:1018C000622C0030DB000030CB000030CA0000305A
:1018D000C9000030C8005908DA00902C5B1C712C3C
:1018E000722C762C5B360138DB00782C0310DB0C75
:1018F000481C7B2C7C2C7D2CDB170130D000CB3797
:10190000CA0CC90CC80CD00B7F2C0130D000500879
:10191000DA07200059085A02031C8F2C902C6E2CD9
:10192000581B932C942CCA2C5A08031D982C992CC4
:10193000A22C0030CB000030CA000030C9000030BB
:10194000C800C42D4C08C8074D08C93D4E08CA3D03
:101950004F08CB3D4B1CAD2CAE2C562D5B1CB12C37
:10196000B22CB62C5B360138DB00B82C0310DB0C34
:10197000481CBB2CBC2CBD2CDB170130D000CB3756
:10198000CA0CC90CC80CD00BBF2C0130D0005008B9
:10199000DA07562D4B08803AD0004F08803A5002A3
:1019A000031DDC2C4E084A02031DDC2C4D084902A5
:1019B000031DDC2C4C0848020318DF2CE02C182DEA
:1019C000FF30D000FF30D100FF30D200FF30D30015
:1019D00048084C02D40049084D3BD5004A084E3B0C
:1019E000D6004B084F3BD7005408D0075508D13DCF
:1019F0005608D23D5708D33D5308CB005208CA00C1
:101A00005108C9005008C8008030D0005008D806DE
:101A1000DB09DB0A5B08031D0E2D0F2D202D013085
:101A2000C8070030C93D0030CA3D0030CB3D202DF5
:101A30004C08C8024D08C93B4E08CA3B4F08CB3B77
:101A40004B084A0449044804031D272D282D522D14
:101A50005B08031D2C2D2D2D522D0030CB000030A6
:101A6000CA000030C9000030C800C42D0130C8359C
:101A7000C90DCA0DCB0D890B372DDB1F402D412D14
:101A8000422D48145B1C452D462D492D0314DB0DBA
:101A90004B2D0310DB0D5A0803194F2D502D522DDD
:101AA0000130DA02CA1F552D562D362DD901DB1F04
:101AB0005A2D5B2D692D5B087F390319602D612D2F
:101AC000642DD901D90A692D481C672D682D692D0F
:101AD000612D590803196D2D6E2D9B2D0130C807FE
:101AE0000030C93D0030CA3D0030CB3D4B1C792D44
:101AF0007A2D9B2D4808D0004908D1004A08D20011
:101B00004B08D3000130D400D337D20CD10CD00C09
:101B1000D40B842D5308CB005208CA005108C900C9
:101B20005008C8005A0A0319962D972D9B2D013095
:101B3000D0005008DA075A0A03199F2DA02DA52DB1
:101B40005A08031DA42DA52DB32D0030CB00003065
:101B5000CA000030C9000030C8005A08031DB12D6A
:101B6000B22DB32DD8015A1CB62DB72DB92DCA17D9
:101B7000BD2D7F30D0005008CA055A36CB00D81F83
:101B8000C22DC32DC42DCB17080020003108803989
:101B9000BB003135C100B01FCE2DCF2DD02D41144B
:101BA00041080319D42DD52DE42D410A031DD92D4B
:101BB000DA2DE22D0030B1000030B0000030AF006F
:101BC0000030AE00B017EC2D0030B1000030B00096
:101BD0000030AF000030AE0035088039B60036085E
:101BE000BB063535BC00B41FF62DF72DF82D3C147F
:101BF0003C080319FC2DFD2D0C2E3C0A031D012E63
:101C0000022E0A2E0030B5000030B4000030B300C0
:101C10000030B200B417142E0030B5000030B4000C
:101C20000030B3000030B2003C080319182E192E02
:101C30001E2E4108031D1D2E1E2E272E0030B10022
:101C40000030B0000030AF000030AE00FF2F2E0893
:101C5000A00034089231F9228D3120002108C700FC
:101C60002008C6004608B600B701B801B901390816
:101C7000C0003808BF003708BE003608BD0047085E
:101C8000B600B701B801B9013908C5003808C40069
:101C90003708C3003608C2002F08A000330892316D
:101CA000F9228D3120002108C7002008C60046080F
:101CB000B600B701B801B9013608BD073708BE3D07
:101CC0003808BF3D3908C03D4708B600B701B80124
:101CD000B9013608C2073708C33D3808C43D390882
:101CE000C53D3008A00032089231F9228D31200024
:101CF0002108C7002008C6004608B600B701B80191
:101D0000B9013608BD073708BE3D3808BF3D390860
:101D1000C03D4708B600B701B801B9013608C2078F
:101D20003708C33D3808C43D3908C53D0830BD35C6
:101D3000BE0DBF0DC00D890B972E2F08A0003208D5
:101D40009231F9228D3120002108C7002008C600F9
:101D50004608BD074708BE3D0030BF3DC03D2E08C8
:101D6000A00033089231F9228D3120002108C700EC
:101D70002008C6004608BD074708BE3D0030BF3DED
:101D8000C03D0830BD35BE0DBF0DC00D890BC22E44
:101D90002E08A00032089231F9228D31200021084E
:101DA000C7002008C6004608BD074708BE3D0030F2
:101DB000BF3DC03D2F08A00034089231F9228D317B
:101DC00020002108C7002008C6004608C2074708AF
:101DD000C33D0030C43DC53D3008A00033089231FA
:101DE000F9228D3120002108C7002008C6004608CE
:101DF000C2074708C33D0030C43DC53D3008A000C0
:101E000034089231F9228D3120002108C7002008C2
:101E1000C6004608B6004708B700B801B901083047
:101E2000B635B70DB80DB90D890B102F3608C2079E
:101E30003708C33D3808C43D3908C53D3D08B600E4
:101E40003E08B7003F08B8004008B9001830B9365E
:101E5000B80CB70CB60C890B272F3608C207370809
:101E6000C33D3808C43D3908C53D0830BD35BE0DF9
:101E7000BF0DC00D890B362F41083C07B600B701D6
:101E8000B70D3608823EC600FF30373DC7005F2FD2
:101E90000130C235C30DC40DC50D890B492FC01FBC
:101EA000522F532F542F42140130BD35BE0DBF0D9C
:101EB000C00D890B552FFF30C607FF30C73DC41F2B
:101EC000622F632F482FBC01C01F672F682F842FFC
:101ED000FF303D05B600FF303E05B700FF303F053F
:101EE000B8007F304005B90039083804370436049B
:101EF00003197B2F7C2F7F2FBC01BC0A842F421C2F
:101F0000822F832F842F7C2F3C080319882F892F41
:101F1000B12F0130C2070030C33D0030C43D003056
:101F2000C53D451C942F952FB12F4208B60043089C
:101F3000B7004408B8004508B9000130BA00B93705
:101F4000B80CB70CB60CBA0B9F2F3908C50038086F
:101F5000C4003708C3003608C2000130C60700308D
:101F6000C73D4708803AB60080303602031DBA2FBD
:101F7000FF304602031CBD2FBE2FC82F7F3020002C
:101F8000C5008030C4000030C3000030C200F32F11
:101F900020004708803AB60080303602031DD22F59
:101FA000013046020318D52FD62FE12F0030200034
:101FB000C5000030C4000030C3000030C200BB01C7
:101FC000F32F20004608C100FF30C205FF30C305D3
:101FD0007F30C4050030C505411CEF2FF02FF12FD5
:101FE000C4174136C5003B08B6003608C50445088D
:101FF000B1004408B0004308AF004208AE0008003A
:10248400F00070082B009300013090000800E83041
:102494002B0091008C3024009E000800F500750884
:1024A400031D552A582A20008E165A2A20008E12FF
:1024B4000800F5007508031D602A632A20008E17A2
:1024C400652A20008E13080020006308620461045A
:1024D400600403196E2A6F2A712A8030E30608000B
:1024E4006400800101310130FE020030FF3B7F08AF
:1024F4007E04031D732A0034013020009E00210055
:1025040091140B178B17633020009B0080309C00C4
:1025140008002000A3002308A1000430A135890B82
:10252400902AF0302105A2000D080F3922048D00F5
:1025340088310020923108000130923150229231CA
:10254400B02A250884002608850000088731EF2773
:10255400923101302000A5070030A63D2000250857
:102564008400260885001200031DB92ABA2AA32A6A
:1025740008002000A300F0302305A1000D080F3946
:1025840021048D0088310020923120002308A1000D
:102594000430A135890BCB2AF0302105A2000D08A7
:1025A4000F3922048D0088310020923108008030D8
:1025B4002000DF066308CB006208CA006108C90076
:1025C4006008C8005F08CF005E08CE005D08CD003B
:1025D4005C08CC008B31BD23923120004B08DF0016
:1025E4004A08DE004908DD004808DC000800200035
:1025F400A800A401A5012008A200A3012208A600A6
:102604002308A700281C072B082B0C2B2608A4073B
:102614002708A53D0130A635A70D890B0D2B031006
:10262400A80C2808031D172B182B042B2508A10020
:102634002408A00008007808031D212B222B8C2BD2
:102644007608031D262B272B322B7708283E86007D
:1026540087012330873D0108923142229331742B44
:102664007603031D362B372B492B7708F100F20133
:10267400EF30F3002330F40071087302860072080F
:10268400743B87000108923142229331742B02304B
:102694007606031D4E2B4F2B5B2B7708283E8600B6
:1026A40087012330873D0108FE3C92314222933159
:1026B400742B03307606031D602B612B742B770873
:1026C400F100F201EF30F3002330F40071087302DB
:1026D40086007208743B87000108FE3C9231422256
:1026E4009331742B21006908F1007108F707C83091
:1026F4007702031C7E2B7F2B8C2BC830F702013012
:10270400F1007108F60704307602031C8A2B8B2B28
:102714008C2BF601080003102000640D650DEB00FE
:102724006B08031D962B972BA02B0030E50000307F
:10273400E4000030E3000030E200FD2B6208E60014
:102744006308E7006408E8006508E9001F30E9361B
:10275400E80CE70CE60C890BA92B6608EA00E417E1
:10276400FF30E205FF30E305FF30E4050030E50506
:102774009630EB02EB1FBF2BC02BD82B6B08803A93
:10278400973E0318C62BC72BC82B972B0130E53671
:10279400E40CE30CE20C890BC92B0130E60066085B
:1027A400EB07031DD62BD72BC82BED2B20306B0248
:1027B400031CDD2BDE2BE82B972B0130E235E30DD8
:1027C400E40DE50D890BE02B0130EB026B08031DD2
:1027D400EC2BED2BDF2B6A080319F12BF22BFD2BCD
:1027E400E209E309E409E509E20A0319E30A031922
:1027F400E40A0319E50A080023008C018E01210074
:102804008C018D011F308E0020008C018D018E0102
:1028140094317D24933192317E2293319231492235
:1028240093317F309531AE25933104302000A500DB
:102834009830A60092319E229331BC302200CF0002
:102844000230D00064302000A0000030A100BC3071
:10285400A2000230A3008831122093312000200806
:102864002100E900BC302200CF000230D0006430E7
:102874002000A0000030A100BC30A2000230A30060
:10288400883112209331200020082100E900200023
:102894000C1529302100E8009630E7007F30890BC1
:1028A400512CE70B512CE80B512C20000C11D0308B
:1028B4002200CF000730D00064302000A000003098
:1028C400A100D030A2000730A30088311220933138
:1028D400200020082100E90029302100E80096307A
:1028E400E7007F30890B742CE70B742CE80B742CF5
:1028F400342C80310D2800309231502294319C3098
:102904002000A400D730890B852CA40B852CD03053
:102914002000A400C930890B8D2CA40B8D2C00320F
:10292400033092318B22943134302000A400F130F2
:10293400890B9A2CA40B9A2C0032033092318B22EF
:1029440094310B302000A4006230890BA72CA40B17
:10295400A72C0000033092318B2294310B302000DD
:10296400A4006230890BB42CA40BB42C00000230F8
:1029740092318B2294310B302000A4006230890BF9
:10298400C12CA40BC12C00001A30890BC72C0032B7
:1029940028309231BB22943115302000A400C63077
:1029A400890BD22CA40BD22C000008309231BB220C
:1029B400943115302000A400C630890BDF2CA40B01
:1029C400DF2C00000C309231BB22943115302000F2
:1029D400A400C630890BEC2CA40BEC2C00000630B0
:1029E4009231BB22943115302000A400C630890BEB
:1029F400F92CA40BF92C000002309231BB22943143
:102A040008002000A80028080319092D0A2D1E2DEE
:102A1400A31F0D2D0E2D1E2D2009AA002109AB0088
:102A24002209AC002309AD00AA0A0319AB0A031951
:102A3400AC0A0319AD0A262D2308AD002208AC0008
:102A44002108AB002008AA00230822042104200442
:102A5400031D2D2D2E2D372D0030A3000030A20094
:102A64000030A1000030A000AD2D9630A900452D06
:102A74000130A4002408A9070130AD36AC0CAB0C1E
:102A8400AA0C890B3F2DFE302D05031D4A2D4B2D1D
:102A94003A2D5F2D0130A4002408A9070130AA07AC
:102AA4000030AB3D0030AC3D0030AD3D0130AD36C3
:102AB400AC0CAB0CAA0C890B592DFF302D05031D52
:102AC400642D652D4C2D6F2D0130A9020130AA35DE
:102AD400AB0DAC0DAD0D890B692DAC1B722D732D97
:102AE400792D023029020318782D792D662D2918A5
:102AF4007C2D7D2D852DFF30AA05FF30AB057F3061
:102B0400AC05FF30AD050310A90C2908A400A501EC
:102B1400A601A7011830A435A50DA60DA70D890B94
:102B24008D2D2408AA042508AB042608AC04270824
:102B3400AD04280803199F2DA02DA52DA31FA32D97
:102B4400A42DA52DAD172D08A3002C08A2002B0839
:102B5400A1002A08A00008002200C601460821009E
:102B6400E300E401E501E60166082000A30021007A
:102B740065082000A200210064082000A1002100B3
:102B840063082000A0000030953103259531200012
:102B94002308B5002208B4002108B3002008B200BD
:102BA4003F30B100C930B0000F30AF00F930AE0093
:102BB4008D31C525953120003108CF003008CE0075
:102BC4002F08CD002E08CC004330CB004830CA007B
:102BD4000030C9000030C80088314F2095312000F2
:102BE4004B082200C10020004A082200C000200037
:102BF40049082200BF00200048082200BE00410806
:102C04002100DE00220040082100DD0022003F08F0
:102C14002100DC0022003E082100DB008031352049
:102C2400953121005E082200C50021005D082200C4
:102C3400C40021005C082200C30021005B082200BC
:102C4400C20045082000B500220044082000B4005A
:102C5400220043082000B300220042082000B200F2
:102C64004230B100FE30B0000030AF000030AE00A2
:102C74008D31C525953120003108E5003008E40088
:102C84002F08E3002E08E20093318D2395312000B4
:102C940062087F3E2100E30022004608283E21000E
:102CA400E400E5012330E53D6408860065088700FB
:102CB400630881000130E30063082200C607C830BE
:102CC4004602031C662E672EB02D080020005F0804
:102CD400B1005E08B0005D08AF005C08AE005F089C
:102CE400B5005E08B4005D08B3005C08B2008D3125
:102CF400C5259631200031082100B7002000300896
:102D04002100B60020002F082100B50020002E0865
:102D14002100B40037082000B1002100360820004B
:102D2400B000210035082000AF0021003408200045
:102D3400AE00210037082000B5002100360820002D
:102D4400B400210035082000B3002100340820001D
:102D5400B2008D31C5259631200031082100B30021
:102D6400200030082100B20020002F082100B1000B
:102D740020002E082100B000BA302000CB00B6306D
:102D8400CA000430C9003F30C8003730B100CC302D
:102D9400B0009A30AF001730AE0021003708200091
:102DA400B500210036082000B400210035082000B9
:102DB400B300210034082000B2008D31C5259631BE
:102DC40020003108CF003008CE002F08CD002E0897
:102DD400CC008B31BD23963120004B082100A30089
:102DE40020004A082100A200200049082100A10077
:102DF400200048082100A00037082000B10021006D
:102E040036082000B000210035082000AF00210062
:102E140034082000AE00210033082000B500210052
:102E240032082000B400210031082000B300210042
:102E340030082000B2008D31C525963120003108BC
:102E44002100A700200030082100A60020002F0840
:102E54002100A50020002E082100A4003F302000FE
:102E6400CB008030CA000030C9000030C800BF3039
:102E7400B1000030B0000030AF000030AE002100DF
:102E840037082000B500210036082000B4002100D6
:102E940035082000B300210034082000B2008D3131
:102EA400C525963120003108CF003008CE002F0808
:102EB400CD002E08CC008B31BD23963120004B0869
:102EC4002100AB0020004A082100AA002000490884
:102ED4002100A900200048082100A8003D3020005E
:102EE400B1002A30B000AA30AF009F30AE002100FC
:102EF40033082000B500210032082000B40021006E
:102F040031082000B300210030082000B2008D31C8
:102F1400C525963120003108CB003008CA002F089F
:102F2400C9002E08C80021002B082000CF00210072
:102F34002A082000CE00210029082000CD0021000D
:102F440028082000CC008B31BD23963120004B088B
:102F54002100AF0020004A082100AE0020004908EB
:102F64002100AD00200048082100AC002308200007
:102F7400B100210022082000B00021002108200017
:102F8400AF00210020082000AE0021002708200007
:102F9400B500210026082000B400210025082000E7
:102FA400B300210024082000B2008D31C5259631DC
:102FB40020003108CB003008CA002F08C9002E08B1
:102FC400C80021002F082000CF0021002E08200077
:102FD400CE0021002D082000CD0021002C08200067
:102FE400CC008B31BD23963120004B08DF004A080A
:102FF400DE004908DD004808DC000800DB340F343B
:10300400C9343F34483465346C346C346F342C34F4
:1030140077346F3472346C346434213400343C3487
:103024006C3436343634CF3407345034B9348434C1
:10303400883408343C34AB34AA342A34BE34A33440
:10304400853488343234DA340F34C9343F34833429
:10305400F93422343F340034003400343F34003433
:10306400003440344B3417349A34CC3437343F343E
:103074000434B634BA349F34AA342A343D34003488
:1030840000340034BF34DB340F34C9344034E43406
:0E309400CB3496344034DB340F3449344034AE
:020000040001F9
:08000000FF3FFF3FFF3FFF3F00
:04000E00E22FFF3F9F
:00000001FF
